:020000040800F2
:100000001032002039030008872200086120000810
:10001000852200086F060008B929000800000000CA
:10002000000000000000000000000000790200084D
:10003000E106000800000000D50200089122000837
:100040005303000853030008530300085303000838
:100050005303000853030008530300085303000828
:1000600053030008530300085303000871060008F7
:100070005303000853030008530300085303000808
:1000800053030008530300085303000853030008F8
:1000900053030008530300085303000853030008E8
:1000A00053030008530300085303000853030008D8
:1000B00053030008530300085303000853030008C8
:1000C00053030008530300085303000853030008B8
:1000D00053030008AD290008530300085303000828
:1000E0005303000853030008530300085303000898
:1000F0005303000853030008530300085303000888
:100100005303000853030008530300085303000877
:100110005303000853030008530300085303000867
:100120005303000853030008530300085303000857
:100130005303000853030008530300085303000847
:100140005303000853030008530300085303000837
:100150005303000853030008530300085303000827
:100160005303000853030008530300085303000817
:100170005303000853030008252300085303000815
:1001800053030008530300085303000853030008F7
:100190005303000800000000530300085303000845
:1001A00053030008530300085303000853030008D7
:1001B00053030008530300085303000853030008C7
:1001C00053030008530300085303000853030008B7
:1001D000530300085303000800F002F800F03CF855
:1001E0000AA090E8000C82448344AAF10107DA4592
:1001F00001D100F031F8AFF2090EBAE80F0013F0A8
:10020000010F18BFFB1A43F001031847A04000007C
:10021000C0400000103A24BF78C878C1FAD852070D
:1002200024BF30C830C144BF04680C607047000070
:100230000023002400250026103A28BF78C1FBD8EF
:10024000520728BF30C148BF0B6070471FB503F08D
:10025000C5FF1FBD10B510BD00F0D0F91146FFF766
:10026000F5FF02F0BAFB00F0EEF903B4FFF7F2FF7E
:1002700003BC00F0F5F900002C4B19680868B0E8E1
:10028000F04F80F30988BFF36F8F4FF0000080F3C9
:10029000118870470000000008480068006880F37B
:1002A00008884FF0000080F3148862B661B6BFF38F
:1002B0004F8FBFF36F8F00DF00BF00BF08ED00E07E
:1002C000DFF80C00016841F470010160704700BF65
:1002D00088ED00E0EFF30980BFF36F8F134B1A68CE
:1002E0001EF0100F08BF20ED108A20E9F04F1060BB
:1002F00009B44FF0500080F31188BFF34F8FBFF364
:100300006F8F03F033FA4FF0000080F3118809BCBF
:1003100019680868B0E8F04F1EF0100F08BFB0EC85
:10032000108A80F30988BFF36F8F70471C0000208C
:10033000EFF30580704700000948804709480047EF
:10034000FEE7FEE7FEE7FEE7FEE7FEE7FEE7FEE785
:10035000FEE7FEE704480549054A064B70470000E2
:1003600015230008D9010008102C002010320020AD
:10037000102E0020102E002053EA020C00F069809D
:100380002DE9F04B4FF00006002B1FBFB3FA83F5A9
:1003900003FA05F424FA05F65E4012BF1643B2FADA
:1003A00082F502FA05F4C5F120051EBF22FA05FC0C
:1003B00044EA0C04203556EA044C4FEA144418BFB2
:1003C000641C4FF000084FF00009904271EB030CE1
:1003D00039D3002919BFB1FA81F701FA07F6B0FA4B
:1003E00080F700FA07F6C7F120071EBF20FA07FCC6
:1003F00046EA0C062037B6FBF4FCA7EB0507103FD6
:1004000007F01F0BCBF120060CFA0BFB2CFA06F6BB
:1004100044BFB3460026202FA4BF5E464FF0000B1A
:100420005BEA060C08BF4FF0010B19EB0B09ABFBA5
:10043000027C48EB0608C01B06FB02CC0BFB03CC7E
:1004400071EB0C01C1E70B46024641464846BDE848
:10045000F08B13B54FF000004FF00001AFF30080B8
:10046000BDE81C407047032A40F2308010F0030CB6
:1004700000F0158011F8013BBCF1020F624498BFF7
:1004800011F801CB00F8013B38BF11F8013BA2F194
:10049000040298BF00F801CB38BF00F8013B11F00F
:1004A000030300F02580083AC0F0088051F8043BAF
:1004B000083A51F804CBA0E80810F5E7121D5CBF1C
:1004C00051F8043B40F8043BAFF30080D20724BF4F
:1004D00011F8013B11F801CB48BF11F8012B24BFE3
:1004E00000F8013B00F801CB48BF00F8012B704732
:1004F00010B5203AC0F00B80B1E81850203AA0E8BF
:100500001850B1E81850A0E81850BFF4F5AF5FEAF2
:10051000027C24BFB1E81850A0E8185044BF18C9A5
:1005200018C0BDE810405FEA827C24BF51F8043B4C
:1005300040F8043B08BF7047D20728BF31F8023BA0
:1005400048BF11F8012B28BF20F8023B48BF00F834
:10055000012B704702F0FF0343EA032242EA024202
:1005600000F02CB84FF0000200B5134694469646B2
:10057000203922BFA0E80C50A0E80C50B1F12001B6
:10058000BFF4F7AF090728BFA0E80C5048BF0CC064
:100590005DF804EB890028BF40F8042B08BF7047C2
:1005A00048BF20F8022B11F0804F18BF00F8012B34
:1005B00070477047704770474FF000020429C0F041
:1005C000128010F0030C3FF4CFAFCCF1040CBCF15F
:1005D000020F18BF00F8012BA8BF20F8022BA1EBD7
:1005E0000C01FFF7C1BF5FEAC17C24BF00F8012BFB
:1005F00000F8012B48BF00F8012B7047754600F04A
:100600002BF8AE4605006946534620F007008546A4
:1006100018B020B5FFF79EFEBDE820404FF0000661
:100620004FF000074FF000084FF0000B21F00701DA
:10063000AC46ACE8C009ACE8C009ACE8C009ACE81D
:10064000C0098D46704710B50446AFF300802046C0
:10065000BDE81040FFF709BE00487047B02B0020EE
:1006600001491820ABBEFEE7260002007047FEE7F6
:10067000014800F0A9B80000300100200D490268CF
:100680008A4201D20C4901E00B492031D2B2142335
:10069000083AB2FBF3F2436C02F01F0223F00303AB
:1006A0001944816404498031C1640121914001658C
:1006B0007047000008040240000802400179074A20
:1006C00002EB81024265054A4432491E826501F00F
:1006D0001F0201219140C16570470000FC080240E3
:1006E000704772B6FEE710B590F825300021012260
:1006F000022B03D00421C163012122E003681C689E
:1007000024F00E041C60836C1C6824F480741C604C
:1007100003681C6824F001041C6090F84430046CE9
:1007200003F01F0302FA03F36360D0E913345C6043
:10073000436D33B11C6824F480741C60D0E9163416
:100740005C6080F82520002280F82420084610BD37
:1007500070B590F82520002401212346022A07D0F5
:100760000422C26380F8251080F82430012429E097
:100770000268156825F00E0515600268156825F0F9
:1007800001051560826C156825F48075156090F878
:100790004420056C02F01F0201FA02F26A60D0E9FF
:1007A00013255560426D32B1156825F480751560CA
:1007B000D0E91625556080F8251080F82430816B2B
:1007C00001B18847204670BDF0B4016C0C68016827
:1007D0000D6890F8442002F01F06042202FA06F386
:1007E000234211D06B070FD50B689B0603D40B680F
:1007F00023F004030B6090F8441001F01F018A40BD
:10080000016C4A60016B1DE0022303FA06F72742E0
:100810004FF0000C4FF0010218D0AF0716D50C684E
:10082000A40605D40C6824F00A040C6080F8252086
:1008300090F8441001F01F018B40016C4B6080F870
:1008400024C0C16A00291AD0F0BC08470823B3406D
:10085000234214D02B0712D50B6823F00E030B6034
:1008600090F84410036C01F01F0102FA01F1596085
:10087000C26380F8252080F824C0416BE2E7F0BC19
:100880007047000070B504000CD02B4A216814207A
:10089000914209D2294A0A44B2FBF0F08000606418
:1008A00027480AE0012070BD234A52420A44B2FBA5
:1008B000F0F080006064204808382064022084F84A
:1008C00025000A6847F6F0708243D4E90203184312
:1008D000D4E904352B431843A3691843E36918434B
:1008E000236A1843104308602046FFF7C7FEA0683C
:1008F0000025B0F5804F00D16560A16C20790860BB
:10090000D4E9130141606068401E032808D82046DE
:10091000FFF7D4FE606D0560D4E91601416002E086
:100920006565A565E565E563012084F8250084F823
:100930002450002070BD000008040240F8FFFDBFF5
:10094000000002402DE9F04FDFF82092002301263D
:100950000324A9F1040B85B00F2709F1040AABF1B8
:10096000040EFAE006FA03F52A407CD091F804C0A0
:100970000CF0030CBCF1010F02D0BCF1020F26D128
:10098000D0F808C0CDF800C04FEA430C04FA0CF8C8
:10099000CDF810C0DDF800C02CEA080CCDF800C07E
:1009A000D1F80C80DDF810C008FA0CF8DDF800C0B2
:1009B00048EA0C08C0F80880D0F804C02CEA050CFE
:1009C0000D79C5F300159D4045EA0C0545600D798C
:1009D000ED43AD070ED0C5684FEA430804FA08FCA2
:1009E00025EA0C05D1F808C00CFA08FC4CEA050C05
:1009F000C0F80CC00D7905F00305022D16D1DD08F5
:100A000000EB850CCDF808C0DCF820805D074FEACC
:100A1000D56C07FA0CF528EA05080D6905FA0CF5FE
:100A2000DDF808C045EA0805CCF8205005684FEA13
:100A3000430CCDF808C004FA0CFC25EA0C0591F82B
:100A400004C00CF00308DDF808C008FA0CF848EA06
:100A50000508C0F800804D6815F4403F7CD0444D37
:100A6000D5F860C000E077E04CF0010CC5F860C03C
:100A70002D6E23F0030C05F0010500953D4D6544F6
:100A80000295AD684FEA837C4FEA1C7807FA08FCB0
:100A900025EA0C05B0F1904F06D0DFF8DCC06045C8
:100AA00005D14FF0010C20E04FF0000C1DE0DFF805
:100AB000CCC0604502D14FF0020C16E0DFF8C0C098
:100AC000604502D14FF0030C0FE0DFF8B8C060457D
:100AD00002D14FF0040C08E0DFF8ACC0604502D151
:100AE0004FF0050C01E04FF0060C0CFA08FC4CEA44
:100AF000050C029DC5F808C0D9F80050CC46D1F8C5
:100B0000048095435FEAC82800D51543CCF800500F
:100B1000DAF80050D446D1F8048095435FEA88287B
:100B200000D51543CCF80050DBF80050DC46D1F876
:100B3000048095435FEA883800D51543CCF800500F
:100B4000DEF80050F446D1F8048095435FEAC838D7
:100B500000D51543CCF800505B1C0A6832FA03F547
:100B60007FF400AF05B0BDE8F08F0000080401403D
:100B70000010024000000140000400480008004846
:100B8000000C00480010004800140048426921EAA7
:100B900002030A4043EA0241816170470AB1816160
:100BA000704781627047000001488068704700000C
:100BB0000C0000200248816842681144816070473F
:100BC0000C00002010B50024032000F09BF80F203B
:100BD00000F008F808B1012401E000F047F82046D1
:100BE00010BD000030B505461B4887B0016E41F4CA
:100BF00080110166006E06A900F48010009001A823
:100C000000F066FB00F096FB1449154AB0FBF1F1C9
:100C10001448491E0260416040F2E7320021C0E9F9
:100C20000321816000F0D7FD040012D10D4800F0CF
:100C300005FE04000DD14E2000F036F8102D07D22D
:100C4000002229464E2000F03DF80748056000E0EC
:100C5000012407B0204630BD0010024040420F0082
:100C600000500140900100200C0000200D4808B504
:100C7000016E41F001010166016E01F00101009178
:100C8000816D41F080518165806D002200F08050BF
:100C900000900F21901E00F015F8BDE8084000F00C
:100CA000A1B8000000100240002809DB00F01F027C
:100CB000012191404009800000F1E020C0F80011BE
:100CC00070470000F0B40E4B1B680C46C3F30223C0
:100CD000C3F10705042D00D90425191D072901D2E8
:100CE000002300E0DB1E012606FA05F1491E214023
:100CF00099409E40761E16403143F0BC01F05DBE27
:100D00000CED00E0064900F0070208684FF6FF030B
:100D1000184040EA0220034A104308607047000070
:100D20000CED00E00000FA052B492C4B0A6832213B
:100D30004A432B4940B1B0F5007F086829D020F420
:100D4000C06040F480602CE00868C0F341200228B5
:100D500004D051F8800F20F4807022E0D1F8800098
:100D600020F48070C1F88000086820F4C06040F46E
:100D700000700860B2FBF3F0401C00E0401E4A69BE
:100D8000520501D50028F9D1486940050AD503204C
:100D90007047C0F34120022806D051F8800F40F47C
:100DA0008070086000207047D1F8800040F48070A7
:100DB000C1F88000086820F4C06040F4007008604A
:100DC000B2FBF3F0401C00E0401E4A695205DBD53F
:100DD0000028F9D1D8E700001800002040420F0099
:100DE000007000400248816841F480418160704792
:100DF000007000402DE9F843044600680026BB4D12
:100E000000035ED5A86D0027C00008D4A86D40F08F
:100E10008050A865A86D012700F080500090DFF891
:100E2000D092D9F8001041F48071C9F80010FFF792
:100E3000BBFE804606E000BFFFF7B6FEA0EB080051
:100E400002282BD8D9F80000C005F5D5D5F89000B8
:100E500010F4407014D0216D814211D0D5F890006B
:100E6000D5F8901020F4407041F48031C5F890100E
:100E7000D5F8901021F48031C5F89010C5F8900095
:100E8000C00711D0FFF790FE804641F2883907E095
:100E9000FFF78AFEA0EB0801494501D903260BE0C4
:100EA000D5F890008007F3D5D5F89000216D20F497
:100EB00040700843C5F890001FB1A86D20F0805025
:100EC000A8652078C00707D0D5F88800616820F0B1
:100ED00003000843C5F888002078800707D5D5F8B7
:100EE0008800A16820F00C000843C5F8880020782D
:100EF000400707D5D5F88800E16820F030000843A6
:100F0000C5F888002078000707D5D5F88800216942
:100F100020F0C0000843C5F888002078C00607D537
:100F2000D5F88800616920F440700843C5F888004E
:100F30002078800607D5D5F88800A16920F44060A4
:100F40000843C5F888002078400607D5D5F8880002
:100F5000E16920F440500843C5F888002078000675
:100F600007D5D5F88800216A20F440400843C5F829
:100F700088002088C00507D5D5F88800616A20F46C
:100F800040300843C5F888002068800307D5D5F8AD
:100F90009C00A16A20F003000843C5F89C0020884B
:100FA000800507D5D5F88800E16A20F44020084381
:100FB000C5F88800208840050FD5D5F88800216B3A
:100FC00020F440100843C5F88800206BB0F5801F5E
:100FD00003D1E86840F48010E860208800050FD550
:100FE000D5F88800616B20F440000843C5F88800FC
:100FF000606BB0F5800F03D1E86840F48010E860C2
:101000002088C0040FD5D5F88800A16B20F040706F
:101010000843C5F88800A06BB0F1807F03D1E86871
:1010200040F48010E86020884FF0006180040ED505
:10103000D5F88800E26B20F040601043C5F88800C6
:10104000E06B884203D1E86840F48010E8602088B3
:1010500040040ED5D5F88800226C20F04060104383
:10106000C5F88800206C884203D1E86840F48010FD
:10107000E860208800040FD5D5F88800616C20F066
:1010800040500843C5F88800606CB0F1805F03D120
:10109000E86840F48030E8602068C0030FD5D5F8D8
:1010A0008800A16C20F040400843C5F88800A06C7F
:1010B000B0F1804F03D1E86840F48030E8602068E8
:1010C00040030FD5D5F89C00E16C20F44010084394
:1010D000C5F89C00E06CB0F5001F03D1E86840F44F
:1010E0008010E8603046BDE8F88300000010024040
:1010F000007000402DE9F0470E4605004FF0000754
:1011000025D0DFF8AC81D8F8000000F00F00B04225
:101110000CD2D8F8001021F00F013143C8F80010AC
:10112000D8F8000000F00F00B04210D12968614CDF
:10113000C80741F2883A5AD06868DFF87C910328E2
:1011400008D0022820682DD0400500282CDB012083
:10115000BDE8F08720688001F9D5E06800F003025F
:10116000E068C0F30310401C032A19D0534A00BFA3
:10117000B2FBF0F0E268C2F306225043E268C2F329
:101180004162521C5200B0FBF2F0484517D9A068EA
:1011900010F0F00F0CD0880711D5A86840B10EE010
:1011A000474AE5E78003D0E700F0D6F8484506D97E
:1011B000A06820F0F00040F08000A0608027A068C8
:1011C000696820F003000843A060FFF7EDFC81464A
:1011D00006E000BFFFF7E8FCA0EB090151453AD853
:1011E000A068696800F00C00B0EB810FF2D12868AC
:1011F000810714D5400703D5A06840F4E060A060E3
:101200002878000705D5A06820F4605040F4E0601D
:10121000A060A068A96820F0F000084304E0802FD7
:1012200003D1A06820F0F000A060D8F8001040467C
:1012300001F00F01B14216D9016821F00F013143CD
:101240000160FFF7B1FC074607E000BFFFF7ACFC09
:10125000C11B514501D903207AE7D8F8000000F0FE
:101260000F00B042F2D12878400705D5A068E968A0
:1012700020F4E0600843A0602878000706D5A06845
:10128000296920F4605040EAC100A06000F064F8D1
:10129000A1680C4AC1F30311515C01F01F01C84061
:1012A0000949086009480068BDE8F047FFF79ABCA3
:1012B000002002400010024000B4C4040024F400E6
:1012C00000127A007C420008180000200C00002068
:1012D0000F2202600C4A936803F003034360936893
:1012E00003F0F0038360936803F4E063C3609268E3
:1012F0004FF4E06303EAD20202610448006800F0A0
:101300000F000860704700000010024000200240FB
:101310000548064900688968054AC1F30221515C05
:1013200001F01F01C8407047180000200010024063
:101330008C4200080548064900688968054AC1F3DF
:10134000C221515C01F01F01C84070471800002005
:10135000001002408C420008184910B58868C0F39C
:1013600081021748012A0BD08A684310C2F3810218
:10137000022A06D08A68C2F38102032A03D0002021
:1013800010BD184610BDCA6802F00304CA68C2F353
:101390000312521C032C02D0B0FBF2F001E0B3FBAD
:1013A000F2F0CA68C968C2F306225043C1F3416132
:1013B000491C4900B0FBF1F010BD000000100240D4
:1013C0000024F4002DE9F84304007AD02078F84D89
:1013D000C00747D0A868E96800F00C0001F00301DD
:1013E0000C2802D0082817D001E0032914D0606827
:1013F000B0F5803F17D0B0F5A02F286817D020F4A3
:1014000080302860286820F4802028606068E0B17F
:10141000FFF7CAFB064614E02868800322D56068FF
:101420000028D2D01EE0286840F48030EDE740F478
:1014300080202860F7E700BFFFF7B6FB801B642819
:1014400070D828688003F7D50CE0FFF7ADFB06469F
:1014500005E000BFFFF7A8FB801B6428F0D82868D0
:101460008003F7D4207880074CD5A868E96800F09D
:101470000C0001F003010C2802D004280DD001E07B
:1014800002290AD0E068002828682BD040F4807038
:101490002860FFF789FB064619E02868400502D559
:1014A000E068002891D06868217C20F0FE4040EA86
:1014B00001606860BF480068FFF794FB002800D116
:1014C00020E072E1FFF770FB801B0228B8D8286883
:1014D0004005F7D56868217C20F0FE4040EA0160B5
:1014E00068600FE020F480702860FFF75DFB06461F
:1014F00005E000BFFFF758FB801B0228A0D8286832
:101500004005F7D42078000729D560690028D5F870
:10151000940013D040F00100C5F89400FFF744FB9D
:10152000064606E090E000BFFFF73EFB801B022866
:1015300086D8D5F894008007F6D510E020F0010099
:10154000C5F89400FFF730FB064604E0FFF72CFBDC
:10155000801B022878D8D5F894008007F6D420782C
:10156000400761D5A86D0026C00008D4A86D40F0E2
:101570008050A865A86D012600F0805000908E482C
:101580000168C90511D40168804641F48071016089
:10159000FFF70AFB074604E0FFF706FBC01B022823
:1015A00052D8D8F80000C005F6D5A068012815D09B
:1015B0000528D5F8900016D020F00100C5F890005D
:1015C000D5F8900020F00400C5F89000A06841F222
:1015D0008838B8B1FFF7E8FA07460EE0D5F8900072
:1015E00040F00100F0E740F00400C5F89000F5E796
:1015F000FFF7DAFAC11B414526D8D5F890008007DD
:10160000F6D50CE0FFF7D0FA074604E0FFF7CCFA76
:10161000C11B414518D8D5F890008007F6D41EB1FB
:10162000A86D20F08050A8652078800629D5A06993
:101630000028D5F8980013D040F00100C5F89800B4
:10164000FFF7B2FA064606E075E000BFFFF7ACFA16
:10165000801B02286FD8D5F898008007F6D510E0D7
:1016600020F00100C5F89800FFF79EFA064604E056
:10167000FFF79AFA801B02285DD8D5F898008007FA
:10168000F6D4E069F0B3A968C1F3810103295DD004
:101690000228286820F08070286003D0FFF784FAC1
:1016A00004464BE0FFF780FA064604E0FFF77CFAB9
:1016B000801B02283FD828688001F7D4F4E908018C
:1016C0006FF00F0202EB01110843218A520449080E
:1016D00002EB4151A26841EA02210843217D4FF00B
:1016E0007E42490802EB41610843217B40EAC16028
:1016F000E968324A11400843E860286840F0807089
:10170000286000E05EE0E86840F08070E860FFF785
:101710004BFA044605E000BFFFF746FA001B02281B
:1017200009D828688001F7D54CE000BFFFF73CFAE4
:10173000001B022802D90320BDE8F8832868800135
:10174000F4D4E8681E490840E8603BE00128F3D083
:10175000E868226A00F00301914226D1616A00F034
:10176000F0020901103991421FD1A26A00F4FE4132
:10177000B1EB022F19D194F82C2000F07841B1EB95
:10178000C26F12D1218E00F4C00249084905A1F5AB
:101790000011914209D194F8341000F0C06049085A
:1017A0004906A1F1007181420CD00120C4E700007C
:1017B000001002400C000020007000400C809F01CF
:1017C000FCFFEEFE0020B7E7704770477047704798
:1017D00070477047704710B5040003D094F83D007F
:1017E00010B107E0012010BD002084F83C00204625
:1017F00000F022F8022084F83D00211D206800F04E
:1018000097FD012084F8480084F83E0084F83F00EA
:1018100084F8400084F8410084F8420084F84300D2
:1018200084F8440084F8450084F8460084F84700B2
:1018300084F83D00002010BD7047000090F83D1076
:10184000012901D001207047022180F83D10016874
:10185000CA6842F00102CA6000681349884214D085
:10186000B0F1804F11D0114988420ED01049884202
:101870000BD01049884208D00F49884205D00F4943
:10188000884202D00E49884207D181680D4A114032
:10189000062906D0B1F5803F03D0016841F001016F
:1018A0000160002070470000002C0140000400404F
:1018B00000080040000C004000340140004001409E
:1018C000005001400700010070472DE9F041044637
:1018D0000068C66805694FF00007A90713D5B1076E
:1018E00011D5F91E016101202077206880698007E9
:1018F000204602D0FFF7E8FF04E000F0B7F82046EA
:1019000000F0B5F82777680716D5700714D5216859
:101910006FF004000861022020772068806910F4CD
:10192000407F204602D0FFF7CFFF04E000F09EF892
:10193000204600F09CF82777280715D5300713D5E7
:1019400021686FF008000861042020772068C069D2
:101950008007204602D0FFF7B7FF04E000F086F8CA
:10196000204600F084F82777E80616D5F00614D54F
:1019700021686FF010000861082020772068C06996
:1019800010F4407F204602D0FFF79EFF04E000F0F5
:101990006DF8204600F06BF82777E80708D0F007CD
:1019A00006D021686FF001000861204600F060F861
:1019B000280601D4A80408D5300606D521686FF49E
:1019C000025008612046FFF700FFE80508D5300601
:1019D00006D521686FF4807008612046FFF7F4FE99
:1019E000680608D5700606D521686FF040000861CA
:1019F000204600F047F8A80608D5B00606D52168AD
:101A00006FF0200008612046FFF7E0FEE80208D5ED
:101A1000F00206D521686FF4801008612046FFF7B8
:101A2000D7FEA80208D5B00206D521686FF40010D1
:101A300008612046FFF7CBFE680208D5700206D584
:101A400021686FF4800008612046FFF7C2FE28027B
:101A50000AD5300208D521686FF4000008612046DD
:101A6000BDE8F041FFF7B6BEBDE8F08170477047B2
:101A700000680349884201D1FFF79CB87047000015
:101A800000500140704790F88410012918D00121BE
:101A900080F884102421C0F8881001680A680B6857
:101AA00023F001030B6022F000510022426603681C
:101AB00019602021C0F8881080F8842010467047F3
:101AC000022070477047704770B5044690F8840054
:101AD00001281DD0012084F884002420C4F8880047
:101AE00020680568026822F00102026020688268AE
:101AF00022F060620A438260204600F08BFC20687E
:101B000005602020C4F88800002084F8840070BD9F
:101B1000022070BD70B5044690F8840001281DD0E5
:101B2000012084F884002420C4F888002068056817
:101B3000026822F0010202602068826822F060429E
:101B40000A438260204600F065FC20680560202082
:101B5000C4F88800002084F8840070BD022070BDA5
:101B600070477047704700002DE9F0410368044654
:101B7000D86919689A6840F60F0528424FF00005A9
:101B80004FF002060AD187067ED501F0200702F049
:101B9000805C57EA0C0777D0616F42E1B64FDFF8FF
:101BA000DCC2174001EA0C0C57EA0C0C6CD05FEA5F
:101BB000C07C0CD05FEAC15C09D54FF0010CC3F8C2
:101BC00020C0D4F8903043F00103C4F8903083076C
:101BD00009D5D30707D023681E62D4F8903043F0AC
:101BE0000403C4F8903043070AD5D30708D0266809
:101BF00004233362D4F8903043F00203C4F89030E9
:101C000003070CD501F020033B4308D026680823C6
:101C10003362D4F8903043F00803C4F890300305E1
:101C20000BD54B0109D526684FF400633362D4F815
:101C3000903043F02003C4F89030D4F89030002B5B
:101C40003DD0800609D501F0200002F08051084304
:101C500003D0616F09B120468847D4F8900021680D
:101C60008968490602D410F0280F2AD0204600F0D7
:101C7000B7FC2068806840061ED52068083050E810
:101C8000001F21F0400100E021E040E80012002A9E
:101C9000F3D1D4F8800078B179498163D4F8800019
:101CA000FEF756FD00280AD0D4F88000816B00E0D2
:101CB0002046BDE8F04108472046FFF753FFBDE846
:101CC000F0812046FFF74EFFC4F89050F7E7D4F8B4
:101CD0006CC02027BCF1010F7ED15FEAC06C7BD5C0
:101CE0005FEAC16C78D510201862206880684006D1
:101CF00051D5D4F880100A6850680004000C3ED01A
:101D0000B4F85C3083423AD9A4F85E0008680068F1
:101D100080062CD4216851E8000F20F4807041E83F
:101D20000002002AF6D12068083050E8001F21F098
:101D3000010140E80012002AF5D12068083050E87F
:101D4000001F21F0400140E80012002AF5D1C4F83C
:101D50008C70E566216851E8000F20F0100041E822
:101D60000002002AF6D1D4F88000FEF7BCFC2667FA
:101D7000B4F85C00B4F85E10401A81B207E0B4F821
:101D80005C1081429BD11068800698D5266720465A
:101D9000FFF798FE93E7B4F85C00B4F85E10401AC1
:101DA00081B2B4F85E00002889D0002987D022686B
:101DB00052E8000F20F4907042E80003002BF6D1A7
:101DC0002D4BDB432068083050E8002F1A4040E8D4
:101DD000002CBCF1000F00E00EE0F3D1C4F88C70D1
:101DE000E5666567206850E8002F22F0100240E8A1
:101DF0000023002BF6D1C9E7C60209D5560207D544
:101E00004FF4801018622046BDE8F041FFF7A9BEEC
:101E100003060AD501F0800302F40002134304D044
:101E2000A16F00297FF444AF49E7420611D54A0665
:101E30000FD52046016851E8002F22F0400241E80A
:101E40000023002BF6D1C0F88870856700F007F9F1
:101E500035E7020206D54A0004D52046BDE8F04128
:101E6000FFF77EBEC00195D5002993DA2046BDE874
:101E7000F041FFF728BE000001000010200100041F
:101E8000CD25000810B5040003D0D4F8880010B1A7
:101E900007E0012010BD002084F88400204600F0F7
:101EA00027F82420C4F888002068016821F0010187
:101EB0000160A06A10B1204600F0CEFA204600F082
:101EC000B9FB0128E6D02068416821F490414160C7
:101ED0002068816821F02A0181602068016841F052
:101EE000010101602046BDE8104000F019BB000070
:101EF00070B59CB00646142115A8FEF733FB54219B
:101F00006846FEF72FFB26493068884246D10120FB
:101F10000025CDE900056846FEF76CFF08B1FEF725
:101F2000E0FB2049086E40F480400866086E00F42B
:101F300080401A90C86C40F00100C864C86C15A9B4
:101F400000F001001A904FF4C06015900220CDE916
:101F500016050720CDE918504FF09040FEF7F2FC2F
:101F6000124C11482060192060601020C4E902055D
:101F70008020C4E90405A561E56120462562FEF7DD
:101F800081FC08B1FEF7ADFBF46700220521252096
:101F9000A662FEF797FE2520FEF786FE1CB070BDF8
:101FA00000380140001002400800024030010020CB
:101FB0002DE9F8430446D0F88800984616460D46A9
:101FC000202802D00220BDE8F883A5B19EB10020F0
:101FD000C4F890002120C4F888001834FEF7E4FD0E
:101FE000A6878146E68754F8100C2027183CB0F5E8
:101FF000805F02D003E00120E5E7206910B12E46A2
:10200000002510E000260EE08021204600F084FC30
:10201000C0B9DEB116F8010B21688862B4F8560029
:10202000401EA4F85600B4F856004B464FF000028C
:10203000CDF800800028E7D14FF04001204600F0A5
:102040006BFC40B1C4F888700320BCE735F8020B84
:10205000C0F30800E0E7C4F888700020B3E77047D9
:10206000FEE70000064D4FF400544FF47A76214607
:102070002846FEF78BFD304600F0C0FCF7E7000075
:10208000000800480D4808B5816C41F004018164E6
:10209000816C01F004010091816C41F001018164C7
:1020A000806C002200F00100009005210B20FEF75B
:1020B00009FEBDE808400B20FEF7F6BD0010024007
:1020C00010B50B4A00210B4800F0D4FC0A4C084A1A
:1020D000002120602432094800F0CCFC044A6060F2
:1020E00048320021064800F0C5FCA06010BD000089
:1020F000E84100088922000800000020652000084F
:10210000CD28000870B586B014216846FEF72AFA7B
:102110003D48C16C41F00401C164C16C01F004018F
:102120000591C16C41F02001C164C16C01F0200136
:102130000591C16C41F04001C164C16C01F04001E6
:102140000591C16C41F00101C164C16C01F0010154
:102150000591C16C41F00201C164C16C01F0020142
:102160000591C16C41F00801C164C06C274E00F0BC
:1021700008004FF400540590002221463046FEF737
:102180000DFD0120CDE9004000240294694630464F
:102190000394FEF7D7FB4DF6FF700325CDE900054C
:1021A000694602943046FEF7CDFB4FF48060CDE9DE
:1021B0000005694602941648FEF7C4FB49F63F1035
:1021C000CDE900054FF09046694602943046FEF78F
:1021D000B9FBC020CDE90004694630460294FEF701
:1021E000B1FB4FF6FF70CDE900056946029409483E
:1021F000FEF7A8FB0420CDE90005694602940648D5
:10220000FEF7A0FB06B070BD0010024000080048B9
:102210000018004800040048000C0048184810B599
:10222000164901604FF4E1314160002181600C22C8
:10223000C160C0E904128161C161016241628162D1
:10224000FFF720FE08B1FEF74CFA00210C48FFF71B
:1022500061FC08B1FEF745FA00210948FFF734FC9C
:1022600008B1FEF73EFA0648FFF70DFC002803D040
:10227000BDE81040FEF735BA10BD0000003801403F
:102280009C000020FEE7FEE7012000F0B7FBFBE723
:1022900010B54FF0E020006901F0EAFD012803D0FD
:1022A000BDE8104001F018BB10BD00B593B0382157
:1022B0006846FEF757F914210EA8FEF753F94FF4BC
:1022C0000070FEF731FD0220C1010391402104910D
:1022D0000421CDE9080100903221CDE90A100790D0
:1022E0000C900D906846FFF76DF808B172B6FEE7E6
:1022F0000F200E9003200F9000201090119012904C
:1023000003210EA8FEF7F6FE002801D072B6FEE704
:1023100013B000BD0248016841F4700101607047CC
:1023200088ED00E00148FFF7D0BA000090010020DE
:102330002DE9F04F02682E4B2E4E2F4FDFF8BCC018
:102340002F4C304D4FF0804B98420BD0584509D060
:10235000B04207D0B84205D0604503D0A04201D0BA
:10236000A84204D122F070084A6842EA0802DFF865
:102370009880DFF89890DFF898A0984211D05845DF
:102380000FD0B0420DD0B8420BD0604509D0A0426A
:1023900007D0404505D0484503D0504501D0A8425C
:1023A00003D122F44076CA6832434E6922F080029B
:1023B000324302608A68C2620A688262984209D027
:1023C000A04207D0404505D0484503D0504501D034
:1023D000A84201D109690163012141610169C9076D
:1023E00003D0016921F001010161BDE8F08F000017
:1023F000002C01400004004000080040000C004098
:1024000000340140005001400040014000440140C0
:102410000048014030B5416EB9B1026891689268D8
:10242000C1F342610B4B520F9C5CE50003F10804C1
:10243000A25CB5FBF2F2A0F86A205A5C615CD200A3
:10244000B2FBF1F1A0F8681030BD0121A0F86A10CC
:10245000F8E700006C42000890F82810090706D53C
:1024600001684A68836B22F400421A434A6090F87C
:102470002810C90706D001684A68C36A22F40032EE
:102480001A434A6090F82810890706D501684A68FF
:10249000036B22F480321A434A6090F828104907EF
:1024A00006D501684A68436B22F480221A434A60C9
:1024B00090F82810C90606D501688A68C36B22F413
:1024C00080521A438A6090F82810890606D5016860
:1024D0008A68036C22F400521A438A6090F828102C
:1024E000490611D501684A68436C22F480121A43E8
:1024F0004A60416CB1F5801F06D101684A68836C5F
:1025000022F4C0021A434A6090F82810090606D542
:1025100001684A68C06C22F4002202434A60704796
:102520002DE9F84300260446C0F89060FEF73CFB16
:102530008046206800684FF0200500076FF07E4756
:1025400013D54346002229042046009700F0E4F901
:1025500058B1216851E8000F20F0800041E80002E6
:10256000002AF6D1C4F8885021E0206800684007AE
:1025700022D5434600224FF480012046009700F008
:10258000CBF9C8B1216851E8000F20F4907041E800
:102590000002002AF6D12068083050E8001F21F020
:1025A000010140E80012002AF5D1C4F88C5084F8EB
:1025B00084600320BDE8F883C4F88850C4F88C50C8
:1025C00044F86C6F666026760020F3E710B5806AE9
:1025D0000021A0F85E10A0F85610FFF7C3FA10BD56
:1025E00010B5026852E8001F21F4907142E8001310
:1025F000002BF6D10E4B0268083252E8001F19403A
:1026000042E80014002CF6D1C16E012908D10168FE
:1026100051E8002F22F0100241E80023002BF6D1F0
:102620002021C0F88C100021C166416710BD000058
:10263000FEFFFFEF2DE9F041044601688068226942
:10264000E3691043626900251A431043DFF84CC266
:102650000A68934B1A4002430A6020684168E268A6
:1026600021F44051114341602168A069614501D0C6
:10267000226A10438A688B4B1A4002438A602068A2
:10268000C16A626A21F00F011143C1628649236861
:1026900086488B420DD1D0F8880010F0030006D098
:1026A000012867D0022854D0032851D164E00120CA
:1026B0004FE07F498B420BD1D0F8880010F00C001E
:1026C00047D0042845D0082852D00C2840D153E0E8
:1026D00078498B420BD1D0F8880010F0300038D008
:1026E000102847D0202843D0302831D144E0724907
:1026F0008B420BD1D0F8880010F0C00029D04028C0
:1027000038D0802834D0C02822D135E06B498B42A4
:102710000ED1D0F8880010F440701AD0B0F5807F48
:1027200028D0B0F5007F23D0B0F5407F10D123E052
:1027300063450DD1D0F8880010F4406009D0B0F5A1
:10274000806F17D0B0F5006F12D0B0F5406F13D086
:1027500010205B4A5B4F00264FF40041634539D19E
:1027600060B102280DD004280DD0082831D10EE028
:102770000220EEE70420ECE70820EAE7FEF7C8FDB8
:1027800003E0114603E0FEF7E7FD01007BD0606A3D
:1027900037F810206768B1FBF2F007EB470383427C
:1027A00069D8B0EB073F66D8002308461946FDF705
:1027B000E3FD090241EA1061020278081018714134
:1027C0003A460023FDF7D8FD3F4AA0F540719142FB
:1027D00057D950E0E3694FF6EF788B422BD10928A7
:1027E00049D2DFE800F005080D48254848480E00AA
:1027F000FEF78EFD01E0FEF79DFD010001D142E0F4
:102800001146606A37F81000B1FBF0F041006068D3
:1028100001EB5001B1FBF0F1A1F1100040452AD8C5
:102820004FF6F07201EA0200C1F34201084328E0CA
:10283000FEF792FDE1E709281DD2DFE800F0050868
:102840000D1C1E1C1C1C0E00FEF762FD01E0FEF7B5
:1028500071FD010001D116E01146606A37F81000E1
:10286000B1FBF0F1606801EB5001B1FBF0F0A0F1B9
:102870001001414504D9012505E0FEF76DFDE8E7AB
:1028800080B22168C8600120A4F86A0024F8680FAB
:102890002846E6602661BDE8F08100000080004027
:1028A000F369FFCFFFF4FF11003801400010024030
:1028B0000044004000480040004C004000500040F0
:1028C0000024F40054420008FFFC0F0088B02022CE
:1028D00008A16846FDF70CFE4FF6FF744FF47A75B9
:1028E0002346202269460B48FFF762FB284600F08A
:1028F00085F8F5E74672656552544F53207573614C
:1029000072745F74687265616420746573742E2ECE
:102910002E0D0A009C0000202DE9F047994617462D
:102920000D4604464FF00008089E33E0701C31D07D
:10293000FEF73AF9A0EB0900B04218D8BEB1206802
:102940000168490726D5802D24D0402D22D0C169A9
:10295000C94309070DD4082505622046FFF740FE4C
:10296000C4F8905084F884800120BDE8F0870320EB
:10297000FBE7C069C04300050CD421684FF4006038
:1029800008622046FFF72CFE2020C4F8900084F84F
:102990008480ECE72068C06935EA000004D000209C
:1029A000B842C3D00020E0E70120F9E70148FFF773
:1029B000DBB800009C000020FEE70907090E002894
:1029C00004DB00F1E02080F80014704700F00F00F5
:1029D00000F1E02080F8141D7047FEF7F3F8FFF7D0
:1029E00064FCFFF78FFBFFF74DFBFFF717FC00F0D0
:1029F00013F8FFF765FB00F021F8FEE710B5EFF3E1
:102A0000058111B16FF0050403E0002408B100F066
:102A1000F9FD204610BD0000EFF3058010B16FF006
:102A2000050070470448016811B14FF0FF3070474E
:102A300001210160002070476C00002010B5EFF309
:102A4000058010B16FF0050010BD0848016801292C
:102A500002D04FF0FF3010BD054A002182F8141D4E
:102A60000221016000F036FE002010BD6C00002045
:102A70000BE000E02DE9FF414FEA01034FF00005B4
:102A8000EFF30581039549BB40B34027182100248B
:102A90004AB3166806B1344696691EB13146761EB1
:102AA000382E02D21679F60703D0002004B0BDE814
:102AB000F081566906B1B708D2F808C0BCF1000F22
:102AC0000DD0D5685C2D18D312693AB136B18DE8B6
:102AD00006103A46214601F0A0F903900DE0D668B1
:102AE0005EB912694AB903AACDE90012BAB2214609
:102AF00001F066F9012800D003950398D6E700009D
:102B00002DE9F041134C0F460546E6682068001D8C
:102B100000F044FC681C07D137B12168BDE8F041E2
:102B20000D48091D00F089BC20683544B542456058
:102B3000216805D2A06BBDE8F041091D00F065BC1D
:102B4000606B091D00F061FCA06A854200D2A5629D
:102B5000BDE8F0811C000020CC0600202DE9F041EA
:102B6000054600F077FC2D4CA068401CA060206852
:102B70002B4F10B1606930B32BE02560A0680128AD
:102B800027D1002606EB860007EB800000F02FFC23
:102B9000761C382EF6D3234800F029FC2148143047
:102BA00000F025FC1F48283000F021FC1D483C3077
:102BB00000F01DFC1B48503000F019FC1948606300
:102BC0001430A06305E02068E96AC06A884200D832
:102BD0002560606A401C60626864E86A2169884216
:102BE00000D9206100EB800007EB8000291D00F078
:102BF00024FC00F04FFC606900280CD02068E96AD2
:102C0000C06A884207D208494FF080500860BFF37D
:102C10004F8FBFF36F8FBDE8F08100001C000020D4
:102C20001C0200207C06002004ED00E038B500F016
:102C300011FC104C2068C8B90F4800F0D8FB0E48B2
:102C4000143000F0D4FB0C48E060143020610A4BD3
:102C50000020F03B009003F1500210210A2000F008
:102C600051FE206010B105A100F096FCBDE838408F
:102C700000F010BC58000020D0070020546D7251A5
:102C80000000000030B4026C0B46002A0BD0C16873
:102C90001144C1608468A14201D30168C16030BCA5
:102CA0001846FDF7E0BB30BC70472DE9F041856B5D
:102CB000174604460026026C82B1C7B1E068FDF7F2
:102CC000D2FBE168206C091AE1602268914202D2CD
:102CD000A168081AE060022F16D017E02068A8B992
:102CE000A06801F03DF906460020A0600EE0606893
:102CF000FDF7B9FB216C606808446060A1688842F8
:102D000004D32068606001E005B16D1E6D1CA563F1
:102D10003046BDE8F08110B5044690F8590058B12E
:102D200001280CD002280FD0502080F31188BFF367
:102D30004F8FBFF36F8FFEE7206B00F0BFFB204685
:102D4000BDE8104000F0BABB10BD000010484FF4C1
:102D50000051420706D0C01D0D4920F00700411A5E
:102D6000C1F500510B4A00230144C2E900030839B0
:102D7000183A21F0070111604B600B600B1AC0E993
:102D8000001393604FF000405360506170470000A3
:102D9000B00B002088000020144E154CA6F29C4772
:102DA0004FF08058DFF84C9012E000BF00F052FB6B
:102DB000F068C568281D00F0F1FAA068401EA06008
:102DC0006068401E606000F065FB2846FFF7A3FFC7
:102DD00060680028EAD138680128F9D9C9F800806C
:102DE000BFF34F8FBFF36F8FF2E70000B8060020EC
:102DF0001C00002004ED00E070B51D46049C51B19C
:102E0000C4F80020C4E90F010121204600F0AEFD06
:102E100084F84C5070BD2460F4E700002DE9F05FA9
:102E20008846DDE90B941546834691009A460A9E32
:102E3000A522206BFDF78EFB6FF00301206B01EBE9
:102E40008501084420F00707780707D0502080F359
:102E50001188BFF34F8FBFF36F8FFEE70025B8F1E6
:102E6000000F0FD05FF00000221818F8001082F851
:102E7000341018F8001011B1401C1028F4D384F855
:102E8000435001E084F83450382E00D33726E662F0
:102E9000C4E91365201D00F0B5FA04F1180000F034
:102EA000B1FA2461C6F138006462A061656584F8F6
:102EB000585052465946384600F05AFA2060B9F147
:102EC000000F01D0C9F80040BDE8F09F30B51149AE
:102ED00000E011460A688242FBD34B685C188442CA
:102EE00003D1406818444860084643681C1894425F
:102EF00009D1084C183C2468A24209D052681A44EF
:102F000042600A6812680260814200D0086030BDE9
:102F10000460F9E78800002070B5002441600B4D83
:102F20000061914206D8D11A8269914206D2011DF0
:102F3000286907E09A4203D2994201D3012403E0B1
:102F4000011DE86800F061FA204670BD58000020BD
:102F500010B5044600F07EFAA06B28B15FF00004C3
:102F600000F098FA204610BD0124F9E730B589B089
:102F70003C4D6EE00498002806DADDE90601059A6A
:102F800090470498002864DB069C606910B1201DFE
:102F900000F004FA03A800F0D7F8024604980A28C3
:102FA00057D2DFE800F00505052D334A05052D331E
:102FB00094F8280040F0010084F828000599A069E1
:102FC000059B01442046FFF7A7FF68B3216A20460E
:102FD000884794F8280040073BD5002000900598CA
:102FE000A169002342181946204601F0C3F8D8B958
:102FF000502080F31188BFF34F8FBFF36F8FFEE730
:1030000014F8280F20F00100207022E094F8280026
:1030100040F0010084F828000598A06128B18118CB
:1030200013462046FFF778FF13E0502080F3118805
:10303000BFF34F8FBFF36F8FFEE794F8280081072F
:1030400003D4204600F03AFA03E020F0010084F8AF
:103050002800002204A9286800F0DCFD002889D19E
:1030600009B030BD580000202DE9FC410F4605464F
:1030700000F074FB01A800F067F80446019818B14D
:1030800000F0E6FFBDE8FC81254EAFB13069006875
:10309000D0B30027291B3A46306800F091FA00F0BF
:1030A000D7FF0028EED11F494FF080500860BFF3D2
:1030B0004F8FBFF36F8FE5E7A542EBD800F0C8FF55
:1030C000F0682746C068C468201D00F067F994F8CE
:1030D0002800410719D5A0692B4641193A462046D8
:1030E000FFF71AFFA8B100200346014600902A46C8
:1030F000204601F03FF860B9502080F31188BFF3FB
:103100004F8FBFF36F8FFEE707E020F0010084F8D8
:103110002800216A20468847B4E70127BAE7000063
:103120005800002004ED00E00648416B096829B111
:10313000416BC968C9684968816270474FF0FF31C7
:10314000FAE700001C00002070B5054600F09EFE66
:10315000064E0446B068844203D200F009F801200C
:1031600000E0002028602046B46070BD58000020B8
:10317000F8B5194D20E0C068C4680668201D00F04D
:103180000DF9216A2046884794F82800400713D596
:10319000A0693044B04206D924616060211DE8680E
:1031A00000F033F908E00020034601460090324663
:1031B000204600F0DFFF38B1E86801680029DAD165
:1031C0002969C5E90310F8BD502080F31188BFF3C9
:1031D0004F8FBFF36F8FFEE758000020084840680C
:1031E000401C4FF0500080F3118804D0BFF34F8F84
:1031F000BFF36F8FFEE7BFF34F8FBFF36F8FFEE715
:1032000090000020074CE068016841B1C0680021CF
:10321000D0F80000FFF728FFFFF7A8FEF3E7012131
:103220000020F7E7580000202DE9F041044600F0A7
:1032300011F994F9455004F1240609E0606A48B197
:10324000304600F0CDFE08B100F00AFA6D1E6DB2F6
:10325000002DF3DC4FF0FF3684F8456000F01AF9DA
:1032600000F0F8F894F9445004F1100709E02069DF
:1032700048B1384600F0B4FE08B100F0F1F96D1E17
:103280006DB2002DF3DC84F84460BDE8F04100F03D
:1032900001B900002DE9F0410546002700F05EFA73
:1032A000324E306808B9FFF751FD706905424ED1C2
:1032B000C5B3083568070ED005F00700C0F1080057
:1032C0000544680707D0502080F31188BFF34F8F63
:1032D000BFF36F8FFEE72DB37068854237D8234860
:1032E000183001460C6801E020460C466168A9428E
:1032F00002D221680029F7D131688C4227D00768B3
:103300002168016060680837411B10290FD96019D6
:10331000420708D0502080F31188BFF34F8FBFF3CE
:103320006F8FFEE713E041606560FFF7CFFD6168D6
:103330007068401A7060B268904200D2B0607069E4
:1033400001430020C4E90001F068401CF06000F077
:103350007FFE780707D0502080F31188BFF34F8F8E
:10336000BFF36F8FFEE73846BDE8F08170000020A4
:1033700010B5031F4FF080741C601B1F21F001016A
:103380001960191F044B0B6014390A60091F6FF094
:10339000020244380A6010BDDD310008D0E9013274
:1033A00001699A60D0E901235A604A68824201D1DA
:1033B00082684A60002202610868401E086008684E
:1033C00070470000034B036003F15C00086040207D
:1033D00010607047F8070020034B036003F15C00A6
:1033E000086080201060704754090020704700F189
:1033F00008014FF0FF32C0E90112C16001610021F4
:103400000160704700210161704730B50B685A1C9C
:1034100002D000F1080202E0026904E0224654688A
:1034200025689D42FAD953684B6099608A60516063
:1034300008610168491C016030BD42684A609368B8
:103440008B6093685960916008610168491C016054
:1034500070470000502080F31188BFF34F8FBFF3F7
:103460006F8F0A494868401C486001280CD1084801
:10347000006810F0FF0F07D0502080F31188BFF3D1
:103480004F8FBFF36F8FFEE7704700009000002062
:1034900004ED00E00849486828B1401E486001D1A9
:1034A00080F311887047502080F31188BFF34F8F4D
:1034B000BFF36F8FFEE700009000002070B500287A
:1034C0002AD0164DA0F1080460686969084207D146
:1034D000502080F31188BFF34F8FBFF36F8FFEE74B
:1034E00022683AB1502080F31188BFF34F8FBFF3A9
:1034F0006F8FFEE78843606000F030F960686968AC
:10350000084468602046FFF7E1FC2869401C2861F8
:10351000BDE8704000F09CBD70BD00007000002050
:103520004FF0E02000210161816105494FF47A727A
:103530000968B1FBF2F1491E416107210161704741
:103540001800002010B5FCF7F3FE114910280ED327
:1035500000F1E02090F8F0030A78904207D2502062
:1035600080F31188BFF34F8FBFF36F8FFEE70948D9
:103570000068896800F4E060884207D9502080F331
:103580001188BFF34F8FBFF36F8FFEE710BD0000B0
:10359000900000200CED00E010B5084B002200BFA9
:1035A00053F832401CB1521C082AF9D310BD43F81D
:1035B000321003EBC201486010BD0000DC010020A6
:1035C00070B515460E460446FFF744FF94F94410C3
:1035D0000020491C01D184F8440094F94510491C8D
:1035E00001D184F84500FFF755FFA06B28B92A46A2
:1035F000314604F1240000F051F82046BDE8704047
:10360000FFF712BE10B5020014D00F48006B38B19E
:10361000502080F31188BFF34F8FBFF36F8FFEE709
:1036200000F09CF800211046FFF76AFA00F010FD48
:10363000002807D105494FF080500860BFF34F8F35
:10364000BFF36F8F10BD00001C00002004ED00E0F0
:1036500002490A6A0260C968416070471C00002084
:1036600001490120C86170471C00002010B50C46BC
:1036700050B1094909681831FFF7C7FE2046BDE877
:1036800010400121FFF73CBA502080F31188BFF3AE
:103690004F8FBFF36F8FFEE71C00002070B51446FC
:1036A0000D4668B10A4909681831FFF7C6FE0CB12A
:1036B0004FF0FF3521462846BDE87040FFF720BA9D
:1036C000502080F31188BFF34F8FBFF36F8FFEE759
:1036D0001C00002030B587B00024039405AA04A97B
:1036E00003A80494FFF76EFEDDE903010094CDE921
:1036F0000110002315A11748059A00F08EFB164D06
:103700000028E8621FD000F005FD012809D0401C08
:1037100019D1502080F31188BFF34F8FBFF36F8F03
:10372000FEE7502080F31188BFF34F8FBFF36F8FF8
:103730004FF0FF30A86201206861EC6007B0BDE87F
:10374000304000F04FB807B030BD000049444C4550
:1037500000000000992D00081C0000200248016BA9
:10376000491C0163704700001C00002010B51B4C71
:10377000206B10B10120E06110BD0020E0612068E5
:1037800021680068096B884204D8216820683431B8
:10379000FFF72CFE2069124901E0B8B1401E00EB92
:1037A000800251F82220002AF7D000EB800201EBC2
:1037B000820101F108034A6852684A609A4201D1C5
:1037C00052684A60D1682160206110BD502080F3AA
:1037D0001188BFF34F8FBFF36F8FFEE71C000020EF
:1037E0001C0200201CB537480168374A914207D1B6
:1037F000502080F31188BFF34F8FBFF36F8FFEE728
:1038000000683149491E884207D1502080F3118851
:10381000BFF34F8FBFF36F8FFEE72C4908780190FD
:10382000FF20087008788DF800009DF800009DF8D2
:10383000002000F0F000904207D0502080F3118863
:10384000BFF34F8FBFF36F8FFEE79DF80000204C52
:1038500000F0500020700720A06005E09DF80020D7
:1038600052008DF80020401E9DF800201206F5D46D
:10387000A060032807D0502080F31188BFF34F8F3A
:10388000BFF36F8FFEE74FF44070A060019808709F
:103890000C482030016841F470010160016841F07A
:1038A00070410160FFF73CFE00206060FCF708FDFE
:1038B0000848016841F040410160FCF7EDFC002040
:1038C0001CBD000000ED00E071C20F4100E400E00B
:1038D0009000002034EF00E010B5502080F31188F4
:1038E000BFF34F8FBFF36F8F00F0D6FA18B10449C2
:1038F0004FF080500860002080F3118810BD000058
:1039000004ED00E038B5049D18B153B1CAB181B1DE
:1039100020E0502080F31188BFF34F8FBFF36F8FEB
:10392000FEE7502080F31188BFF34F8FBFF36F8FF6
:10393000FEE7502080F31188BFF34F8FBFF36F8FE6
:10394000FEE739B1502080F31188BFF34F8FBFF3EA
:103950006F8FFEE750241C46012384F846302B4627
:103960000094FFF749FA204638BD000070B50D46B7
:10397000040025D0FFF76EFDD4E90F20216802FB7B
:103980000011A1600021A163216861600A46D4E9A9
:103990000F01401E00FB0121E16021464FF0FF3086
:1039A00001F8440F487004F110008DB1FFF71FFDBE
:1039B00004F12400FFF71BFDFFF76CFD012070BD33
:1039C000502080F31188BFF34F8FBFF36F8FFEE756
:1039D00021690029F0D000F003FB0028ECD0044955
:1039E0004FF080500860BFF34F8FBFF36F8FE3E756
:1039F00004ED00E02DE9FF4782B01D468A464FF0F6
:103A00000008040003D0BAF1000F08D011E05020E4
:103A100080F31188BFF34F8FBFF36F8FFEE7206CE9
:103A200038B1502080F31188BFF34F8FBFF36F8FF1
:103A3000FEE7022D0AD1E06B012807D0502080F369
:103A40001188BFF34F8FBFF36F8FFEE700F010FABE
:103A50003F4F4FF000094FF0805648B9049838B1F5
:103A6000502080F31188BFF34F8FBFF36F8FFEE7B5
:103A7000FFF7F0FCA06BE16B884207D3022D05D065
:103A80000498D0B1B8F1000F1AD01EE02A46514672
:103A90002046FFF70AF9616A19B104F1240000F029
:103AA0009FFA20B13E60BFF34F8FBFF36F8FFFF7D8
:103AB000F1FC012006B0BDE8F087FFF7EBFC22E047
:103AC0006846FFF7C5FD4FF00108FFF7E3FCFFF77D
:103AD00045FEFFF7BFFC94F94400401C01D184F877
:103AE000449094F94500401C01D184F84590FFF7BB
:103AF000D1FC04A9684600F029F930B12046FFF74F
:103B000093FB00F0A5FA0020D4E7FFF7A3FCA06B1D
:103B1000E16B884213D1FFF7BDFC04F1100004995A
:103B2000FFF7A4FD2046FFF77FFB00F091FA002885
:103B30009ED13E60BFF34F8FBFF36F8F98E7FFF7C3
:103B4000A9FC2046FFF770FB00F082FA90E7000026
:103B500004ED00E02DE9F0471F4690468946040039
:103B600003D0B9F1000F08D011E0502080F3118884
:103B7000BFF34F8FBFF36F8FFEE7206C38B150203B
:103B800080F31188BFF34F8FBFF36F8FFEE7022FD3
:103B90000AD1E06B012807D0502080F31188BFF3D1
:103BA0004F8FBFF36F8FFEE7FFF7CCFC5020EFF392
:103BB000118680F31188BFF34F8FBFF36F8FA06B17
:103BC000E16B884206D3022F04D0002086F31188CF
:103BD000BDE8F08794F94550A06B3A464946204627
:103BE000FFF763F8681C04D06D1C84F84550012071
:103BF000ECE7606A0028FAD004F1240000F0F0F944
:103C00000028F4D0B8F1000FF1D00121C8F800105D
:103C1000EDE700002DE9F747002683B08A4604004F
:103C200003D0BAF1000F08D011E0502080F31188C2
:103C3000BFF34F8FBFF36F8FFEE7206C38B150207A
:103C400080F31188BFF34F8FBFF36F8FFEE700F053
:103C50000FF9DFF8F4804FF000094FF0805748B9B2
:103C6000059838B1502080F31188BFF34F8FBFF310
:103C70006F8FFEE7FFF7EEFBA56BC5B151462046FF
:103C8000FFF700F86D1EA563206950B104F1100024
:103C900000F0A6F928B1C8F80070BFF34F8FBFF34A
:103CA0006F8FFFF7F7FB012006B0BDE8F08705989E
:103CB00008B11EB106E0FFF7EDFB27E06846FFF70D
:103CC000C7FC0126FFF7E6FBFFF748FDFFF7C2FB45
:103CD00094F94400401C01D184F8449094F94500C3
:103CE000401C01D184F84590FFF7D4FB05A9684634
:103CF00000F02CF8002820460AD0FFF795FA00F0D3
:103D0000A7F92046FFF724F90028B3D00020CBE71D
:103D1000FFF71EF990B104F124000599FFF7A6FC06
:103D20002046FFF781FA00F093F90028A2D1C8F8E5
:103D30000070BFF34F8FBFF36F8F9BE72046FFF7F5
:103D400073FA00F085F995E704ED00E02DE9F04104
:103D50000C46050011D0C4B1FFF77CFB174BDA68A5
:103D60006E682068911B471C17D02F681B6A9F4202
:103D700019D0964217D8012410E0502080F3118802
:103D8000BFF34F8FBFF36F8FFEE7502080F3118892
:103D9000BFF34F8FBFF36F8FFEE70024FFF77AFB6F
:103DA0002046BDE8F081884205D9401A20602846A7
:103DB000FFF74EFCF1E700202060DCE71C0000204C
:103DC0002DE9FF5F8346DDE90E87994616468A4650
:103DD0009000FFF75FFA05001CD05C20FFF75AFA4D
:103DE000040014D00020256384F85900CDE9024076
:103DF000CDE900874B46324651465846FFF70EF84C
:103E00002046FEF7ABFE012004B0BDE8F09F284637
:103E1000FFF754FB4FF0FF30F6E7F0B585B0DDE972
:103E20000B640A9DA6B1DCB15C27009726630226CD
:103E300084F85960002604AFCDE90246CDE9005769
:103E4000FEF7ECFF2046FEF789FE049805B0F0BDB2
:103E5000502080F31188BFF34F8FBFF36F8FFEE7C1
:103E6000502080F31188BFF34F8FBFF36F8FFEE7B1
:103E70000548416919B1006B18B100207047012055
:103E800070470220704700001C0000200148C068F5
:103E9000704700001C0000202DE9F0412E4C002747
:103EA000206B28B1A069401CA0613846BDE8F081B4
:103EB000E668761CE66013D1606B006838B150206C
:103EC00080F31188BFF34F8FBFF36F8FFEE7606BF6
:103ED000A16B6163A063206A401C2062FFF724F994
:103EE000A06ADFF87880864209D3606B0068A0B1D1
:103EF000606BC068C5686868864211D2A06220689D
:103F0000C06A00EB800158F82100012800D9012780
:103F1000E0690028C9D00127C7E74FF0FF30EDE77F
:103F2000281DFFF73BFAA86A18B105F11800FFF742
:103F300035FAE86A2169884200D9206100EB8001E6
:103F400008EB8100291DFFF778FAE86A2168C96A41
:103F50008842CAD30127C8E71C0000201C020020A9
:103F600070B504004FF0000133D01B4D2868844227
:103F700007D0502080F31188BFF34F8FBFF36F8FAE
:103F8000FEE7206D38B1401E2065E36CE26A9A427C
:103F90001FD040B11DE0502080F31188BFF34F8F38
:103FA000BFF36F8FFEE7201DFFF7F8F9E06CE062CA
:103FB000C0F13800A061E06A2969884200D928610F
:103FC000064900EB800001EB8000211DFFF735FA68
:103FD0000121084670BD00001C0000201C020020CA
:103FE00070B5C068C46854B104F118000646FFF704
:103FF000D5F9144D286B50B13146134815E05020C7
:1040000080F31188BFF34F8FBFF36F8FFEE7201D42
:10401000FFF7C4F9E06A2969884200D928610B4991
:1040200000EB800001EB8000211DFFF706FAE06A3B
:104030002968C96A884202D90120E86170BD002060
:1040400070BD00001C000020A40600201C020020FF
:104050002DE9F0472C4D00242746286B38B1FFF797
:10406000F9F9286B401E2863286B40B146E05020C8
:1040700080F31188BFF34F8FBFF36F8FFEE7A968FE
:10408000224E0120D1B3A6F5916980463068E0B197
:10409000F068C46804F11800FFF780F9201DFFF7ED
:1040A0007DF9E06A2969884200D9286100EB800126
:1040B00009EB8100211DFFF7C0F9E06A2968C96A90
:1040C0008842E3D3C5F81C80E0E70CB1FFF72CF879
:1040D000AC694CB14FEA0806FFF7DEFE00B1EE61B5
:1040E000641EF9D10020A861E86938B108490127A8
:1040F00038070860BFF34F8FBFF36F8FFFF7CAF920
:104100003846BDE8F08700001C000020A40600200F
:1041100004ED00E010B586B0FEF788FD114C206874
:10412000B8B100200390049005AA04A903A8FFF7E2
:1041300053F9DDE9032102208DE8070000230AA1DD
:104140000B48059AFFF769FE606010B106B00120C8
:1041500010BD502080F31188BFF34F8FBFF36F8FD6
:10416000FEE7000058000020546D72205376630073
:10417000053200082DE9FF411E46134602000A9D44
:104180004FF0000016D0144C2768002F0FD0CDE957
:1041900000130292062917DAFFF76AFE02284FF091
:1041A00000030FD0002269462068FFF723FC04B00B
:1041B000BDE8F081502080F31188BFF34F8FBFF32B
:1041C0006F8FFEE72A46EEE70023324669463846FF
:1041D000FFF7C0FCEBE70000580000204FF04070F4
:1041E000E1EE100A70470000A04200080000000045
:1041F00000000000000000000000000000020000BD
:1042000018000000000000000000000094420008B8
:10421000000000000000000000000000000000009E
:104220000001000008000000000000000000000085
:10423000984200080000000000000000000000009C
:104240000000000000010000080000000000000065
:1042500000000000010002000400060008000A003F
:104260000C0010002000400080000001010101034B
:104270000701000008040204080101010000000019
:104280000000000001020304060708090000000006
:10429000010203044C454400554152540000000003
:1042A00064656661756C745461736B00CC42000880
:1042B000000000209C000000140200086843000871
:1042C0009C00002074310000300200080000000053
:1042D00000000000000000001000000001000000CD
:1042E000000000000024F4000000000000000000B6
:1042F00000000000000000000000000000000000BE
:1043000000000000000000000000000000000000AD
:10431000000000000000000000000000000000009D
:10432000000000000000000000000000000000008D
:10433000000000000000000000000000000000007D
:10434000000000000000000000000000000000006D
:10435000000000000000000000000000000000005D
:08436000AAAAAAAA00000000AD
:04000005080001D915
:00000001FF
